13:31:00.073537   B 4c:32:75:9b:43:fb ethertype IPv4 (0x0800), length 88: (tos 0x0, ttl 64, id 2128, offset 0, flags [none], proto UDP (17), length 72)
    192.168.0.15.57621 > 192.168.0.255.57621: UDP, length 44
	0x0000:  0001 0001 0006 4c32 759b 43fb 0000 0800
	0x0010:  4500 0048 0850 0000 4011 eff6 c0a8 000f
	0x0020:  c0a8 00ff e115 e115 0034 38cb 5370 6f74
	0x0030:  5564 7030 6640 2dce ef02 577e 0001 0004
	0x0040:  4895 c203 733e 8118 aeb9 15b2 80ac fd9c
	0x0050:  dcdb ffca 71d7 8efe

